:020000040001F9
:10C000000040002039C301004BC301004DC30100B3
:10C010000000000000000000000000000000000020
:10C020000000000000000000000000004FC30100FD
:10C03000000000000000000051C3010053C30100D4
:10C0400055C3010055C30100A9F0010055C301000B
:10C0500055C301000000000069EE010055C3010056
:10C0600055C3010055C3010059F0010055C301003B
:10C0700055C3010055C3010055C3010055C301005C
:10C0800055C30100E7C2010055C3010055C30100BB
:10C0900055C3010035EF010061EF010055C30100F8
:10C0A00055C3010055C3010000000000000000005E
:10C0B0000000000000000000000000000000000080
:10C0C00000F002F800F0C3F80CA030C808382418BB
:10C0D0002D18A246671EAB4654465D46AC4201D1C0
:10C0E00000F0B5F87E460F3E0FCCB646012633422F
:10C0F00000D0FB1AA246AB4633431847849E00008B
:10C10000A49E0000103A02D378C878C1FAD852072A
:10C1100001D330C830C101D504680C6070470000FD
:10C120000023002400250026103A01D378C1FBD853
:10C13000520700D330C100D50B60704710B56E298F
:10C1400002D101F024FA10BD702902D100F0CDFA1D
:10C1500010BD662902D108F0E1FC10BD652902D1AD
:10C1600008F0DCFC10BD672902D108F0D7FC10BD37
:10C17000612902D108F0DAFC10BD03681B0A01D363
:10C1800080231943692902D100F03AFA10BD6429CD
:10C1900002D100F035FA10BD752902D100F030FA55
:10C1A00010BD6F2902D101F0F7FA10BD782902D134
:10C1B00000F088FA10BDE92902D101F093FA10BD10
:10C1C000E42902D101F08EFA10BDF52902D101F067
:10C1D00089FA10BDEF2902D101F0EAFA10BDF82961
:10C1E00002D100F07DFA10BD0368DB0901D3802382
:10C1F0001943632902D102F00EF910BD732902D14F
:10C2000002F011F910BDE32902D102F01BF910BDB3
:10C21000F32902D102F01EF910BD002010BD1FB598
:10C220000098019901F0E1F802F09AFA0400002068
:10C23000002108F05DFA401C60600020002108F039
:10C2400041FAE06002F02CF900F00AFE1FBD04F094
:10C2500059F8114603B404F064F803BCFFF7DFFF9C
:10C2600002F0F8FD05F060FB401E00BF00BF00BFFC
:10C2700000BF00BF00BF00BF00BF00BF00BF00BFC6
:10C2800000BFF1D170470000401E00BF00BF00BFDB
:10C2900000BF00BF00BF00BF00BF00BF00BF00BFA6
:10C2A00000BFF1D170470000401E00BF00BF00BFBB
:10C2B00000BF00BF00BF00BF00BF00BF00BF00BF86
:10C2C00000BFF1D170470000401E00BF00BF00BF9B
:10C2D00000BF00BF00BF00BF00BF00BF00BF00BF66
:10C2E00000BFF1D1704705480168002901D002F074
:10C2F0001FFE08B508F0AEF808BD00BF44110140AC
:10C3000070B505460C46164602E00FCC0FC5103E30
:10C31000102EFAD2082E02D303CC03C5083E042EF9
:10C3200007D301CC01C5361F03E021782970641CB6
:10C330006D1C761EF9D270BD074802680F210A43B2
:10C3400002600648804706480047FEE7FEE7FEE732
:10C35000FEE7FEE7FEE700002405004099EF01003C
:10C36000C1C00100004870471030002070B506467B
:10C3700001F01EF8056830460B30C408E400B442F2
:10C3800001D8002070BD68682A46002818D00168CE
:10C39000A14211D30B46214608318B4208D3436892
:10C3A00001194B6003681B1B0B605160046001E0C6
:10C3B00041685160001D70BD024640680028E6D10A
:10C3C0002146284600F0FCFF0028DCD170BD70B586
:10C3D0000446051F00F0ECFF0068002C1AD04468EA
:10C3E00001E020466468002C01D0AC42F9D301681A
:10C3F0000A18AA4204D12A6805468918016000E09B
:10C40000456028684119A14205D1616869602168C9
:10C410004018286070BD6C6070BD4343514330B517
:10C420005C18010C130C0D4692B25D4380B251436F
:10C430002C19054655430A0C09044D19624158430D
:10C44000010C00044019514130BDFEB505461046AF
:10C450000C46184373D0AE468C460020AD1A0146F8
:10C460009C4167D36646002701243D46B61A9D418C
:10C4700002D313463A462124654676462F04360CED
:10C480003E432D0CB61A9D4104D3150C1B042B43BF
:10C4900012041034654676462F06360A3E432D0AAE
:10C4A000B61A9D4104D3150E1B022B431202083409
:10C4B000654676462F0736093E432D09B61A9D413B
:10C4C00004D3150F1B012B431201241D654676462C
:10C4D000AF07B6083E43AD08B61A9D4104D3950F89
:10C4E0009B002B439200A41C65467646EF07760816
:10C4F0003E436D08B61A9D411AD392185B41641CE5
:10C5000016E00018764665464941B71A9D410191EB
:10C51000009009D36046B11A98418E46844600982F
:10C5200001990025401C6941DD0752082A435B0838
:10C53000641EE6D57246634603B0F0BDFFE70020F7
:10C540000146C046C0462A462346F5E77CB51D464F
:10C5500016460C00009001D00019401E084B7B4489
:10C560002A4669460190304601F029F8002C05461C
:10C5700003D06946002001F035F828467CBD000054
:10C580008D10000010B50B460146184601F038F832
:10C5900010BD00000FB4054910B503AA029801F0C0
:10C5A0002FF810BC08BC04B0184700006C30002005
:10C5B00070B5044685690068C10601D5302600E0E3
:10C5C0002026C00707D070BD62683046A16890473A
:10C5D000206A401C20626D1EF6D570BD70B5044601
:10C5E00085690078C00707D170BD6268A168202006
:10C5F0009047206A401C20626D1EF6D570BD000079
:10C60000F7B5002575291068009914A611D000F01F
:10C610002BFF002802DA404211A608E000990968C1
:10C620008A0701D50FA602E0490704D50EA6012509
:10C6300001E000F022FF009F0024243704E001F015
:10C64000DBFA30313955641C0028F8D12B463246CC
:10C650002146009800F043FFFEBD000000000000EE
:10C660002D0000002B00000020000000F8B50F4650
:10C670000188090502D5224C7C4402E0204C7C4410
:10C680000E3405460021243508E016071209360F3E
:10C69000A65D6E541E0732431B09491C16461E43F5
:10C6A000F3D1224604780023240705D5702F06D045
:10C6B000002901D00223113200F011FFF8BD01233F
:10C6C0001032F9E770B504460D462146106800F0B7
:10C6D000D4FE0023024629462046FFF7C7FF70BD5F
:10C6E000D21DD308DB000CCBC0E730B40368202494
:10C6F0001268234303600823C36130BC0023B5E7FD
:10C7000010920000F3B50446002081B0206220465C
:10C71000E1688847002872D0252802D06268A168A5
:10C72000ABE0594F00267F442046E1688847202827
:10C73000054608DB312D06D278192038007800280C
:10C7400001D00643F0E7B00701D50420864300205E
:10C75000E0610746A0612A2D0AD0284603F0DAFDE1
:10C76000002827D0B8000019303D0090856119E0FD
:10C770000298BA00121902C8916102902046E1683D
:10C780008847012F054617D1E06900281FDA2020CD
:10C7900086431CE000980A218069484300994019AB
:10C7A000303888612046E1688847054603F0B2FDCD
:10C7B0000028EFD1012F0AD02E2D08D12046E168A4
:10C7C00088470546202006437F1C022FC3DBA06953
:10C7D000002803DA4042A06101200643F00701D09F
:10C7E000102086436C2D0BD0682D09D04C2D3CD0E9
:10C7F0006A2D38D0742D38D07A2D36D016E040E02E
:10C80000E1682F4620468847B842054609D16C2F7B
:10C8100029D001208002E16806432046884705466A
:10C8200004E06C2F1DD0FF2001300643002D28D0DE
:10C8300028464138192803D80120C0020643203574
:10C84000204626602946029A1646FFF777FC002804
:10C8500010D001280BD0F61DF008C000083002905F
:10C8600055E74020E1E78020D5E70020D3E7361DDB
:10C8700002964CE762682846A1689047206A401CEF
:10C8800044E7206AFEBD00008A91000070B50446AE
:10C89000C068810713D0800601D5A56A04E0A169AC
:10C8A000606840182169451A204601F057F90022B6
:10C8B00006462946204601F081F8304670BD00202A
:10C8C00070BD70B5002802D0FFF7E0FF70BD0025F5
:10C8D000074C6E1E08E02046FFF7D8FF002800D066
:10C8E0003546206D44086400002CF4D1284670BD04
:10C8F00018300020F7B516460C46104600F07CF8BC
:10C900002078611C61280AD0722802D0772839D19A
:10C9100002E00125002404E00225042401E02D4D5D
:10C9200008240222032301270878491C2B2806D05B
:10C93000622807D02039C87F742807D008E01D433B
:10C940001443F1E7042005433C43EDE71020044382
:10C950000098214603F054FD411C13D000213161A1
:10C9600071600121F5604902F1617061200704D511
:10C9700030460222002101F021F8306D3843306545
:10C980003046FEBD0020FEBDF8B50D460646124CF1
:10C99000206DC10704D0410804D044086400F7E7C3
:10C9A000224610E05420FFF7E1FC070010D0790880
:10C9B000206D490001221143084354212065384667
:10C9C00000F007F93A4629463046FFF793FFF8BDD5
:10C9D0000020F8BD028000001830002010B50029AA
:10C9E00002D0FF22013201E00122920201235B0208
:10C9F00001F05EF810BD0000FEB50446466900690E
:10CA00000F4F0190E56800200090A80707D020464E
:10CA100001F0A4F8304603F089FC002801DA38461A
:10CA2000FEBD280502D50198FFF7D1FC4C21204618
:10CA300000F0CFF8206D4008400020650098FEBD52
:10CA4000FFFFFFFF034610B50B439B070FD1042ADE
:10CA50000DD308C810C9121FA342F8D018BA21BAC2
:10CA6000884201D9012010BD0020C04310BD002A1A
:10CA700003D0D30703D0521C07E0002010BD037879
:10CA80000C78401C491C1B1B07D103780C78401CF8
:10CA9000491C1B1B01D1921EF1D1184610BD00008C
:10CAA00030B5441C03E00178401C00290DD08107FB
:10CAB000F9D10B4BDD0104C8D11A91432940FAD0BA
:10CAC000001B0A0603D0C01E30BD001B30BD0A0487
:10CAD00001D0801E30BD0902FCD0401E30BD0000D8
:10CAE000010101010346F0B50B439B072DD1244DF5
:10CAF000EF01042A29D308C810C95E1B9E43121FE8
:10CB00003E4017D0D8B2E1B2401A3106014310D1ED
:10CB100098B2A1B2401A310401430AD1180221028D
:10CB2000000A090A401A3102014302D1180E210EEF
:10CB3000401AF0BDA342DCD018BA21BA884201D90C
:10CB40000120F0BD0020C043F0BD002A01D100202B
:10CB5000F0BD03780C78401C491C002B0DD0A3427B
:10CB60000BD1521E09D003780C78401C491C002BB5
:10CB700003D0A34201D1521EEBD1181BF0BD00001F
:10CB800001010101D2B210B513029A1813049A18C8
:10CB900000F00EF810BD01E004C0091F0429FBD20B
:10CBA0008B0701D50280801CC90700D00270704736
:10CBB00000290BD0C30702D00270401C491E022975
:10CBC00004D3830702D50280801C891EE3E700227C
:10CBD000EEE70022DFE7000082078B079A4237D199
:10CBE00070B5920F0AD0032402780B78401C491CC0
:10CBF000002A2BD09A4229D12042F5D11D4EF401B2
:10CC000004C808C9951B9543254010D19A4207D105
:10CC100004C808C9951B9543254008D19A42EFD016
:10CC200012BA1BBA01209A4200D2404270BD12BA19
:10CC30001BBA2DBA18241000E0401900E140401A38
:10CC400005D12E00E64002D1083CF4D1D01A70BDC7
:10CC500002780B78401C491C002A09D09A4207D15F
:10CC600002780B78401C491C002A01D09A42EFD070
:10CC7000D01A704701010101002203098B4273D3CE
:10CC8000030A8B4258D3030B8B423CD3030C8B42D9
:10CC900021D312E003460B437FD4002243088B428A
:10CCA00074D303098B425FD3030A8B4244D3030B33
:10CCB0008B4228D3030C8B420DD3FF22090212BAF8
:10CCC000030C8B4202D31212090265D0030B8B4274
:10CCD00019D300E0090AC30B8B4201D3CB03C01A5E
:10CCE0005241830B8B4201D38B03C01A5241430B39
:10CCF0008B4201D34B03C01A5241030B8B4201D329
:10CD00000B03C01A5241C30A8B4201D3CB02C01A93
:10CD10005241830A8B4201D38B02C01A5241430A0B
:10CD20008B4201D34B02C01A5241030A8B4201D3FA
:10CD30000B02C01A5241CDD2C3098B4201D3CB01A1
:10CD4000C01A524183098B4201D38B01C01A524150
:10CD500043098B4201D34B01C01A524103098B4254
:10CD600001D30B01C01A5241C3088B4201D3CB003F
:10CD7000C01A524183088B4201D38B00C01A524122
:10CD800043088B4201D34B00C01A5241411A00D2D2
:10CD900001465241104670475DE0CA0F00D049423B
:10CDA000031000D34042534000229C4603098B42AB
:10CDB0002DD3030A8B4212D3FC22890112BA030A33
:10CDC0008B420CD3890192118B4208D389019211B5
:10CDD0008B4204D389013AD0921100E08909C3093A
:10CDE0008B4201D3CB01C01A524183098B4201D33C
:10CDF0008B01C01A524143098B4201D34B01C01A27
:10CE0000524103098B4201D30B01C01A5241C3089E
:10CE10008B4201D3CB00C01A524183088B4201D30D
:10CE20008B00C01A5241D9D243088B4201D34B0028
:10CE3000C01A5241411A00D20146634652415B106A
:10CE4000104601D34042002B00D54942704763464B
:10CE50005B1000D3404201B50020C046C04602BD71
:10CE600070B5064C7C44064D7D4403E020680019F3
:10CE70008047241DAC42F9D170BD000064920000CF
:10CE800080920000F8B517460E460546002B07D0E5
:10CE9000104658434419E41B2046B047A542FAD136
:10CEA00028460838F8BD00000246C80FC007814375
:10CEB0004B0030B54B405B009B0D20D01923DB06A7
:10CEC000C91801231B05994220DB0324A40704256C
:10CED0001346AB400BD3002B04D1EB0613409B0051
:10CEE000E34204D401246407002312195941FF23AB
:10CEF0001B0599420BD2C9000143500F09E0CB0238
:10CF000004D501430803024305D0054830BDFF2185
:10CF1000C905084330BD084607210905884330BDCF
:10CF20000000C07FF0B58B4C0F09254689B0BD438A
:10CF30007BD01D092646AE43FAD00E465E40274000
:10CF4000F60F3E43254071D024012142FBD0FF243F
:10CF5000AD19A4042D1B039501252D05DB02DB0A69
:10CF6000C9022B43C90A29431E010901040F130FEB
:10CF7000050121431701880B820391432D098C463B
:10CF8000A90B1E438A039543B30B9A0396433F09AB
:10CF9000BA0B9403A74302962E467E430497B646E7
:10CFA0004E19D7190C460196544305977E43371BFB
:10CFB0007646BF1B3601B646BE0B3619009676463E
:10CFC000BC043719009C01D3641C00946400002F3A
:10CFD00001D001263443029E049F754366467E437A
:10CFE0000496760034196E0034190094029C019E58
:10CFF0001C196643751BAE46069465464519059C8B
:10D0000005956C43594375460891691A0191049E30
:10D0100001465143A41B0491611A009C0791E1064B
:10D0200005D061090122114302E072E06EE061095E
:10D03000089D00272C0A2D066918049D7C412A0AA8
:10D040002D066918019D6241AC0DAD026D18544169
:10D05000079A910D920255196141029A644658430C
:10D060005443069B059A5A43121A131B9A0E9B01AE
:10D070005B187A41010B0005C3185141220A2006B2
:10D0800044195A419A4200D2491C0120400281426F
:10D0900003D315230226F64302E014230326F643A6
:10D0A0002020C51AA9401746AF40DA400A4320465F
:10D0B0000399D8400914731819055118039A384375
:10D0C000D2075140AC4009D00122944006D300223F
:10D0D000401C5141002C01D1400840001E4A93429F
:10D0E00012D3012203989206904207DB05204007E5
:10D0F00009181A480143C012414004E003204007C8
:10D100000818C10FC907002009B0F0BD0020F107C1
:10D11000FAE705180C464C4111486D42A04115D361
:10D1200094181A465A410E48644290410ED3012089
:10D130004A004005824209D35A00824206D3594030
:10D14000C90F084AC90700201143DDE7002006493E
:10D15000DAE700000000FF07FE070000FFFFFF7F87
:10D160000000E0FF0000F07F0000F87F0121C9050A
:10D170000123411842001B06D3185B0E0AD0C110D0
:10D180000722D206891840075242D14201D55200E7
:10D1900089187047090208D50146002A03D0C10F3B
:10D1A000C9070020704710467047420202D0002095
:10D1B00002497047072109050143F4E70000F87FA1
:10D1C000F0B5FF252D04C609C209FF2704462E40ED
:10D1D0000137CB093E4348402A402B400746002AEE
:10D1E0006BD0002B69D0AA4267D0AB4265D0002833
:10D1F00000DA32460125ED0529432C4309022002BD
:10D20000090AD21A4B0C7F24E31A434C000A7C44CF
:10D21000E35C7D242404121914145B00A2188842D4
:10D2200001D3521C00E0400049420C465C432411EB
:10D230005C43DB016415E318040A5C43C502200D5E
:10D240000C4644436419250A5D432303EC0C0D4648
:10D25000654300030019EB184C42A34201D35B184D
:10D26000401CD4052018002B07D05B00C91804D33C
:10D27000401C002901D1400840003F2189048A4216
:10D2800009D3002A08DC1106090F04D0032149073D
:10D290004018C00FC007F0BD0122410012068918D6
:10D2A0007F2252069142F6D205214907C84201D594
:10D2B0009010F0BDFF20C005F0BD002F00DA32460F
:10D2C0001648AA4207D2AB4205D21902090E17D05E
:10D2D000F80FC007F0BDFF2563002D06AB42F9D85B
:10D2E0004900A942F6D8AB4201D1A942F2D0A942E5
:10D2F00001D1002101E061004908D0050843F0BDDB
:10D300001102090EFBD0FF200243D005F0BD0A46F2
:10D310000146104654E70000B38600000000C07FBD
:10D320000102C21504D00123DB071943002A0ADBDE
:10D330009E239A1A02D40846D0407047FF2241002B
:10D340001206914201D900207047C017C0437047B0
:10D350001F22030C02D10F2200041CD0030E01D1A6
:10D360000002083A030F01D10001121F830F01D1FF
:10D370008000921E002801DB4000521ED205511889
:10D38000021251181922904004D3491C002801D1DF
:10D390004908490008467047C10FC90700D04042FC
:10D3A000012292071143D3E701218907D0E700004A
:10D3B000004870471430002070477047704770472E
:10D3C00038B504460A460020694601F057F900289E
:10D3D00005D002462046009900F044FC012038BDEB
:10D3E00010B5012001F020F910BDF8B501F03AF9AF
:10D3F000054600200C461020C0460646A819A0424B
:10D400000DD932466946002001F038F9070001D1F4
:10D4100001F00AF90098A04200D00546C419FFF7B0
:10D42000C7FFF61D07460560F008C00046192846EC
:10D4300000F008F8B44204D031463868A21B00F06E
:10D4400011FCF8BD00210160416080607047102030
:10D45000704710B5FEF786FF006810BD10B5044692
:10D46000FEF780FF046010BD09684A0501D540B28F
:10D470007047C905FCD500B2704709684A0501D557
:10D48000C0B27047C905FCD580B2704770B50C4674
:10D490000546012A05D02878800600D5EA690023D0
:10D4A00002E0012305E05B1C934202D2E05C00280D
:10D4B000F9D1A869E618C01AA861286AC0182862BC
:10D4C0002846FFF775F804E06A682078A968641CAC
:10D4D0009047B442F8D32846FFF780F870BDFFB5F7
:10D4E00004460D4681B0243000902168880604D59A
:10D4F0001022E0699143216000E00120A84201DD93
:10D50000471B00E000270498A1697A191018081A2F
:10D51000A0612078C00602D42046FFF749F8002613
:10D5200008E003986268A168805D9047206A401C0B
:10D53000761C206204988642F3DB2078C0060AD568
:10D540002046FFF735F806E06268A1683020904772
:10D55000206A401C206238467F1E0028F4DC07E069
:10D5600000986268A168405D9047206A401C206274
:10D5700028466D1E0028F3DC2046FFF72FF82078A0
:10D58000000602D5022005B0F0BD0120FBE71168BE
:10D590000268006A530501D5087009E0D30501D57A
:10D5A000088005E0130602D5C21705C100E0086037
:10D5B0000120704701694A1C02610878704700B574
:10D5C0008FB002910021059105490193794403919F
:10D5D000114604906846FFF795F80FB000BD0000B3
:10D5E000E5FFFFFF0A681070521C0A6070470CC903
:10D5F00008399A4202D2531C0B6010707047000029
:10D60000084B70B50D467B44FFF7D9FF044628460A
:10D6100000F0D8F8002802D00020C04370BD20469A
:10D6200070BD0000AB440000F7B50446154686B057
:10D630002B487844002703C83E460090019111E032
:10D6400007986A467100415A02A800F0C7FF411CC2
:10D6500007D02178890603D5E269391891420ED89E
:10D660003F18761C2078800602D5E069B84206DDB6
:10D67000AE42E5DB07987100405A0028E0D1A0696E
:10D68000C01BA0612046FEF793FF154878445A3826
:10D6900003C800900020019116E041006A460798F7
:10D6A000415A02A800F09AFF0590401C0AD00025BC
:10D6B00005E0626802A8A168405D90476D1C05986E
:10D6C0008542F6D30498401CB0420490E5DB206A02
:10D6D000C01920622046FEF781FF09B0F0BD0000AE
:10D6E000D2820000F7B5D21D0025D20815A6D200BF
:10D6F000F52905CA11D0002A05DA002140429141DE
:10D7000011A60A4608E0009909688B0701D50FA603
:10D7100002E0490701D50EA601251146009F00240D
:10D72000243704E000F0B8FA30323A55641C02465F
:10D730000A43F7D12B46324621460098FFF7CFFE29
:10D74000FEBD0000000000002D0000002B000000C6
:10D750002000000070B504460021243408E055077D
:10D76000D2086D0F303565545D072A43DB08491C2C
:10D7700015461D43F3D10468002310A2250708D5E0
:10D78000A40601D4002904D0C46901230CA2641E9C
:10D79000C461FFF7A4FE70BD10B5044621461068B1
:10D7A000FFF76BFE002302462046FFF7D3FF10BDB4
:10D7B000D21DD108C9000CC9CCE700000000000050
:10D7C00030000000C068802108407047F8B5054669
:10D7D0000C46C8680521C90488430121890508430E
:10D7E000E060800602D5204600F0DEF97149E0686D
:10D7F0000140022903D0204600F080F9BCE0052159
:10D80000012249030140D20391420FD1C00306D542
:10D810006168E06A884200D80846606006E02069D6
:10D82000E0626060606902F0A5FDA061A16800226D
:10D83000EEB200290EDAE06883050BD4C943A1607B
:10D840000921226049030843E0606068411C61606F
:10D850000670ACE0E068012149030843E060002065
:10D8600020602069002831D1606902F0A9FD0125FE
:10D8700027462437ED02002816D0A0898005800FA6
:10D8800008D0E069FEF772FD0028206102D0E06850
:10D89000284318E001202761E061E06803210902C4
:10D8A0008843012189020DE0E069FEF75FFD002851
:10D8B0002061EFD0E0682843E0608105890F03D143
:10D8C000FF2101310843E06020696060E2683A4F5F
:10D8D0002569D0051FD56168E06A884200D80846EE
:10D8E000411B05D02246284600F012F9002843D1FA
:10D8F000E068010204D5E56200206560A06053E0A5
:10D90000691CE1626160E169491E3843A160E06021
:10D9100030462E70F8BD100201D53A4009E060682B
:10D92000411C61600670E06838430A2EE06006D052
:10D930000022E16A6068814203D90B4602E00122BD
:10D94000F7E70346A7895B1B7F0504D4E7699F427D
:10D9500001DD002A1ED0814200D801460F1A0020A6
:10D96000E5626560002BA06009DD22461946284665
:10D9700000F0CEF8002802D00020C043F8BD002FF0
:10D9800008D0A069E5626560C01BA061E068102155
:10D990000843E060E068000209D56168A069E562BB
:10D9A000491B40186560A0610120C043F8BD3046A6
:10D9B000F8BD00008210000000000100F8B5044628
:10D9C00016460D464769007B800730D0384602F086
:10D9D000F7FC00282BD132461026002A25D0012A38
:10D9E00002D0022A23D104E0204600F037FD451979
:10D9F0001BE0384602F0BEFCE16831430028E160DC
:10DA000004DA204600F07AF80120F8BDC9030BD5EE
:10DA10006268E16A914200D81146A26989182269B8
:10DA2000891A814200DD08462D18002D01DA0220F6
:10DA3000F8BDE16A6068E268814206D29103E06263
:10DA400003D5012149048A433243A669AE4211DC61
:10DA5000E16A814201D90B4600E003469F19236920
:10DA6000FF1AAF4206DD814201D90F4600E00746AA
:10DA70009F4206D1202002430020A060A5622060C2
:10DA80000DE0AD1BE669AE1B8142A66000D90846D9
:10DA9000C01A281A20605819606020208243034869
:10DAA00002400020E26040342072F8BDBFCFD7FFB3
:10DAB00070B5C468A50713D0650211D4D51FF93D10
:10DAC0000AD0FF3D6D1E07D0FF3DFF3D022D07D15F
:10DAD00001462431012305E0074E5D1EB54201D306
:10DAE000012070BD0161C36141600F2109028C43B7
:10DAF0001443C460002070BDFFFFFF00C168802296
:10DB0000114392039143C16000218160016070471D
:10DB1000F7B514460E463348D5685769054209D013
:10DB20003846A16902F078FD002811DB2D48C0437A
:10DB30000540E5602B4632463846009902F092FDDA
:10DB40004200A1695208B21A89180028A16104D0C4
:10DB50002046FFF7D3FF0020C043FEBD70B504464A
:10DB60000569C06A6168884200D80846E1680522F4
:10DB7000D2049143E160C90314D5A84209D02246DA
:10DB8000411B2846FFF7C4FF002802D00020C043F5
:10DB900070BDE56200206560A060E06801210904B5
:10DBA0008843E060002070BD10B50446C0682021A5
:10DBB0008843E060A16AA06988420ED02046FFF742
:10DBC000CDFFE06803210903884310210843E0608A
:10DBD000A06AA0612069E06260600349E0680840D3
:10DBE000E06010BD10000200BFBFFFFF10B500F0E5
:10DBF00021FD00F013FD10BD01468008081A02093E
:10DC00001018020A1018020C1018C008820012180E
:10DC10005200891A01E0401C0A390A29FBD27047D8
:10DC200010B5FF22C30D134009D05A4007D09142CE
:10DC300005DA5C42A14202DDC905081810BDC40F17
:10DC4000E407002B06D0002A06D0002902DBFF20C3
:10DC5000C0050443204610BD4102FCD0004810BD61
:10DC60000000C07F10B50346406801E003464068ED
:10DC7000002801D08842F9D31868C3188B4206D017
:10DC8000CB1CD808C000001D411A521A0146081DBD
:10DC90000A60FEF79CFB10BD0B4670B50246890773
:10DCA0008008084319469D08141AA9412509080748
:10DCB000054308092C194841250A01060D43010AAC
:10DCC0002C194141200C0D0428430D0C00194D4125
:10DCD000002140194D41C00869070843E908840F35
:10DCE0008D002543840024184D4124196D41121BD9
:10DCF000AB4107E00925ED432C1152196341002483
:10DD0000401C61411C460A250026551BB441F1D236
:10DD100070BD00007047FFB50C461E468FB003CAA9
:10DD2000089009914F007D0D00D16D1E002108461D
:10DD30000020C0460321099A89050840002A03DA19
:10DD40008200801840080840800D01280A9002DDFA
:10DD50000020C0430A90089807430DD0EF48F049CF
:10DD6000281848430714189800281DD07542291E0A
:10DD70001DDD0A9842421BE01898012802D00020BD
:10DD8000302104E00020F24305E02154401CB04261
:10DD9000FBDB30460022189B002121540F998B6039
:10DDA0000A60486013B0F0BDBD1B6D1CDFE70A9A26
:10DDB000002900DA69420BA800F01AFD0BAB07CB73
:10DDC00003AB07C30899099800F076FD6B4607C3BB
:10DDD0000146D4480918002D00910ADDD149039865
:10DDE0000A9A4942401803A90390684600F097FF39
:10DDF00007E003990A9A081803A90390684600F0FF
:10DE000056FF6B4607C30004000C03D00020C0433C
:10DE1000410800E01046189A002A03D00022009220
:10DE200015461EE0751E05D4FFF736FF30326255E9
:10DE30006D1EF9D501220843079602D000227F1CEF
:10DE400004E02078302801D100227F1E002A0697A6
:10DE500089D01EE0112D07DAFFF71EFF3032625520
:10DE60006D1C02460A43F5D1084303D000980028F0
:10DE700019D00EE00021681E05E0235C625C63544B
:10DE80002254401E491C8142F7DBA81B401E079507
:10DE90000690079A18990020A0540F98079B069A9D
:10DEA00081600CC07EE71126002018905BE7D21D30
:10DEB000F0B50D460446D10893B0C90003C90C90D3
:10DEC0000D9102F037F902460D98C00F01D02D20B8
:10DED00007E02068810701D52B2002E04007C00F32
:10DEE0004001032A0F9001D0072A05DB034629468B
:10DEF000204600F039FC0EE12078800601D5E76964
:10DF000000E006272846652D04D0662814D0672D2A
:10DF100069D12DE00020112F009001DB112300E0DA
:10DF20007B1C0CAA03A910A8FFF7F5FE1199002687
:10DF300010987D1C0E9142E001203B460CAAC007C0
:10DF40000B900120009003A910A8FFF7E4FE119D9B
:10DF500012981099002600280E9501D1781C0D18F2
:10DF6000781B02D446427D1C761EE81B00903AE0E6
:10DF7000012F00DA01270020112F009001DD11236D
:10DF800000E03B460CAA03A910A8FFF7C4FE1199B4
:10DF90003D46109800260E91217809070BD40E9962
:10DFA000A94200DA0D4603A9012D04DD4A19203AE1
:10DFB000D27F302A06D0B84201DA011D04DA0121ED
:10DFC00000910FE06D1EEFE7002802DC86192D1A84
:10DFD00003E0411CA94200DD0D46801B401C00905F
:10DFE0000120C0070B902078000705D40098A842B4
:10DFF00002DB0020C043009069460020C8720B98E5
:10E00000012102AF0337C907884225D002201090B2
:10E010002B2011900B9800280BDA40420B902D20FA
:10E02000119006E00B98FFF7E7FD30317F1E0B9053
:10E0300039701099481E00291090F3DC0B980028C5
:10E04000F0D111987F1E38702088000501D5452039
:10E0500000E065207F1E387001A8C01BC01D0B901A
:10E060000F98002800D0012041190098C017091806
:10E070000B980818A169081A401EA0612078C006F4
:10E0800002D42046FEF794FA0F98002805D0626863
:10E09000A1689047206A401C20622078C00625D5E0
:10E0A0002046FEF785FA21E0002E07DB0E98B042ED
:10E0B00004DD03A86268805DA16802E06268A1686F
:10E0C00030209047206A761C401C20620098401E39
:10E0D000002800900AD100F043FBC0686268016824
:10E0E000405CA1689047206A401C206228466D1E53
:10E0F0000028D9DC07E062683878A1687F1C904767
:10E10000206A401C20620B99481E00290B90F2DC0B
:10E110002046FEF763FA032044E6000001FCFFFFFF
:10E12000104D0000E1DFFFFFD21DF0B504460D46A3
:10E13000D0088DB0C000466807683146384601F007
:10E14000F9FF0246F00F01D02D2307E02068810778
:10E1500001D52B2302E04007C00F43016846002B86
:10E16000037001D0012000E00020032A0A9001D0B2
:10E17000072A04DB2946204600F0F6FA2DE1207834
:10E18000800601D40D2500E0E5697000400D0D2DDD
:10E1900001904BDA300D00210B9008460020C0465C
:10E1A000032189050840002E05DA82008018C20F7D
:10E1B0001018401008408015012801DD0020C043E0
:10E1C000A9000023182906D39C460A460123183AC1
:10E1D0001B07D34003E001221205CA4094460C31CC
:10E1E000202902D33A46203900E032468A400028EE
:10E1F00002DD002A06D119E0002817D10121C90744
:10E200008A4213D3194663467F185E41002806D11F
:10E210000120C007824202D1084687439E430B98E3
:10E22000310D814202D00198401C019020880005E8
:10E2300002D57149794402E06F49794419396B4636
:10E240000A9830221A540A980A7C401C1A54401C1E
:10E250000A900198002801DC302000E0312018727B
:10E26000019A0120002A02D0644BD21804E0720007
:10E270003A4302D0614A521C0192002D02DC2278FE
:10E28000120703D56A462E205072022000228646CD
:10E2900094460CE032033601120F6D1E8B5C02AA0D
:10E2A00013546246521C401C9446052A01DA002D84
:10E2B000F0DC002202AE08E03B0F3F01CB5C521CB9
:10E2C0006D1E3354401C082A01DA002DF4DC23684B
:10E2D0009A0601D511E0401E704504DD3218203A3F
:10E2E000D27F302AF7D0002807DD3218203AD27FBB
:10E2F0002E2A02D11A0700D4401E002D03DD3E2233
:10E300003254401C6D1E497C31540199401C002937
:10E3100006DA2D21471C315401984042019003E058
:10E320002B21471C315401987D21C900884206DB0E
:10E33000FEF7B0FC3030F0557F1C019101E06428FD
:10E3400008DB01986421FEF7A5FC3030F0557F1CF6
:10E35000019101E00A2806DB01980A21FEF79AFCE8
:10E360003030F0557F1C01980A21FEF793FC3031C4
:10E37000F1550A98A1697F1C7A191018081AA06132
:10E380002078C00602D42046FEF712F9216A6E46B4
:10E390000A980818206204E062683078A168761C48
:10E3A00090470A98401E0A90401CF5D12078C0067C
:10E3B00002D52046FEF7FCF802AE09E03078761C64
:10E3C0003E280DD06268A1689047206A401C2062F8
:10E3D0007F1EF3D22046FEF701F90DB00320F0BDF9
:10E3E000206A4019206203E06268A16830209047EB
:10E3F0006D1EEDD3F8E70000EB76000001FCFFFF97
:10E4000010B54369002B02D0C046C04601E0FFF7BB
:10E410003DF8012010BD1278014624310A70002217
:10E420004A700122ECE711680022D243E8E710B5F8
:10E430004369002B02D0C046C04601E0FFF7F4F864
:10E44000012010BD12880146243182840022C2843A
:10E450000122ECE711680022D243E8E710B501463B
:10E46000C268900703D0900607D5886A0AE0FDF7D6
:10E4700079FF01210160881E10BD8B694868C018B2
:10E480000B69C01A40310B7A002B02D0497A401A2E
:10E4900010BD1103FCD50028FADD401E10BD0000A0
:10E4A00010B543485421FEF794FB42485421FEF72F
:10E4B00090FB41485421FEF78CFB40483C493D4BC2
:10E4C000404A01603E4803603B4810605A1C0A65A0
:10E4D000411C1965012101653C48354A3AA178443F
:10E4E000FEF708FA002804D1384878440C3800F0C8
:10E4F00061FC38482F4A36A17844FEF7FBF9002822
:10E5000004D1344878440C3800F054FC32482A4A8C
:10E510002FA17844FEF7EEF9002804D12E48784464
:10E520000C3800F047FC40232148DC000021224643
:10E53000FFF7BEFA002804D0244878445C3800F085
:10E5400039FC1C48224640230021FFF7B1FA00287D
:10E5500004D0204878445C3800F02CFC1648224651
:10E5600010230021FFF7A4FA002804D01A487844A9
:10E570005C3800F01FFC10BD0F4870B5006D4408FA
:10E580000B486400FEF738FA0A48FEF735FA0A48E5
:10E59000FEF732FA09E0206D450820466D00FEF7CF
:10E5A0002BFA2046FDF713FF2C46002CF3D170BD4B
:10E5B000183000206C300020C030002004290020DA
:10E5C000082900200C29002072000000E4720000DD
:10E5D00077000000D1720000BF72000070B51646CF
:10E5E0000C46054600F0B4F80368FF200230C05C1A
:10E5F000012807D0FF2C0ED8185D00280BD0012071
:10E600002C7070BDFF333246214608331868C3189A
:10E610002846984770BD0020C04370BD10B5002843
:10E6200001D000F08FF810BD10B500F0C9FBFFF766
:10E63000F5FF10BD10B5002102A000F0A1FB0120E4
:10E6400010BD00005349475056464E3A205075724F
:10E6500065207669727475616C20666E2063616CEA
:10E660006C65640001226946114B120382188A42CC
:10E670001A6001D8114670471960704770B50C4C8C
:10E680006D46012636032368AD1B9A18AA420ED8A0
:10E69000AD1A9019EE0F75196D10AA18904200D995
:10E6A0001046C01D0B60C208D200D01A226070BD97
:10E6B0001029002030B5C30D1906214A090E31D0AA
:10E6C000FF292FD000283ADB01025002014301202C
:10E6D0007D33C34000D24908012080071724091A5E
:10E6E0002406490882102343FF252D064C00211AD9
:10E6F00004D4891A02D45400201800E0214652089C
:10E700005B19F3D51A220446944007D382068A4245
:10E7100003D180218030884300E08030C009D905D2
:10E72000081830BDFF2904D04100FAD0C00FC0073F
:10E7300030BD410201D0104630BD0028FCDAFAE7B6
:10E740000000C07F01491820ABBEFEE72600020092
:10E7500010B500F005F8001D10BD00BF955F00006A
:10E760000048704714310020F8B51F4604460123C5
:10E770000068DB02032601461840072A05DB002853
:10E7800001D017A506E017A504E0002801D016A5C2
:10E7900000E016A5102081432160A069C01E002F53
:10E7A000A06101D0401EA0612046FDF701FF002FAF
:10E7B00009D038466268A1689047206A401C2062F0
:10E7C000C01C206206E0206AFAE762682878A16827
:10E7D0006D1C9047761EF8D22046FDF7FFFEF8BD6F
:10E7E0004E414E006E616E00494E4600696E6600F5
:10E7F000F7B516468AB02F4878446C4603467C33FA
:10E80000C06F5A689B680DC42A487844763003ACC0
:10E810000DC80DC43720C001081837211B30FEF782
:10E8200039FA05460C46803D1B3C02D56442012066
:10E8300000E00020002709900FE0E0070BD00C203B
:10E840001C497843794432464C394118684600F0F7
:10E850002EFA6B4607C364107F1C002CEDD1154FB8
:10E860007F442C3F15E0E80711D02001C0190EC8E5
:10E870000691089307920068F04201D19819089018
:10E88000324606A903A800F012FA03AB07C36D10C5
:10E89000641C002DE7D1324669460998002803A878
:10E8A00002D000F03CFA01E000F001FA0A9B07C335
:10E8B0000DB0F0BD3C710000034640000A4610B5A3
:10E8C000400D0BD00121C9070F24A40200191C031D
:10E8D00064082143540D2143D20207E000210120A6
:10E8E000F2E7D40F490021435200401E0029F8DA14
:10E8F000DB0FDB07184310BDFFB50D46144685B08E
:10E900004868516801F0EFFB00910190A868A16888
:10E9100001F0E9FB02910390A868616801F0E3FB54
:10E92000029A12188242029201D2012000E00020D5
:10E93000019A0B18D2180028019202D08A4202D9FB
:10E9400003E08A4201D2012000E00020009908186B
:10E9500000906868A16801F0C6FB029A1218824212
:10E96000029201D2012000E00020019A0B18D21877
:10E970000028019202D08A4202D903E08A4201D2E1
:10E98000012000E000200099081800902868216804
:10E9900040004900400849084018F549471814E06C
:10E9A00001994000C90F0843009001980299400066
:10E9B000C90F08430190029803994000C90F08430A
:10E9C0000290039840007F1E039000980028E7DA29
:10E9D0000898002801D0E74E00E00026B74228DA68
:10E9E000F71BF806C00E15D0029B2021091A039AC6
:10E9F0008B401A430392029A019BC2408B401A43F8
:10EA00000292019A009BC2408B4000991A430192E6
:10EA1000C14000917A110BD06B460320811A01D5B9
:10EA2000002101E0890059588700401ED951F5D5D1
:10EA3000374603980299002800D001200143089826
:10EA40000291002808460CD0002800D0012001992E
:10EA5000019A490508430121D20AC902D202019252
:10EA600000E001210E9B0122D207012B02D0002BD6
:10EA700003D013E0002807D116E0904204D890425A
:10EA80000CD1019B0B4209D0019B5918019105D172
:10EA90000099491C009101D17F1C0092002803D0ED
:10EAA000102108460020C04628682168019B009A72
:10EAB0004840C10F0598C90739430EC009B0F0BDE1
:10EAC000FFB587B0099A089808995368926840681A
:10EAD000896896460022039317469446089A12685E
:10EAE0005300099A5B081268520052089A1AA24B06
:10EAF000D4180A9A002A01D0352200E0402206925A
:10EB00000022012315460492DB07059324E0002D23
:10EB100005D175460346039E4D1BB34109D3754687
:10EB20006646039B491B049D9841059B7519AC469D
:10EB30005F4163463B4308D0059B049EDD07760892
:10EB40002E435B080496059301E0521E641EC50F18
:10EB5000ED0749184041521C069B9A42D7DB002D15
:10EB600004D17546039A6B1A824101D203200CE04E
:10EB7000039A0B466B404240134303D0014303D03A
:10EB8000012002E0022000E0002061460191002106
:10EB9000009702910A99002905D06146400201437D
:10EBA000744B019102E08007002302909C423ADA04
:10EBB0001A1BD006C00E15D0029D2021019C091AF7
:10EBC000C5408C402543029C8C4000D00124254345
:10EBD000019C02953D46C4408D4039462C43C140BE
:10EBE0000194009154111DD06D460221002202298A
:10EBF0000CD10320001B07E0002804DB8600AE597F
:10EC0000002E00D00122401C0328F5DB081B02D592
:10EC100088002A5004E08000285810438A00A85039
:10EC2000491EE3D51C460A98002802980CD00028FB
:10EC300000D001200199019A490508430121D20A17
:10EC4000C902D202019200E00121109B0122D207E9
:10EC5000012B02D0002B03D013E0002807D116E0CF
:10EC6000904204D890420CD1019B0B4209D0019BE9
:10EC70005918019105D10099491C009101D1641CDA
:10EC80000092002803D0102108460020C0460898B2
:10EC90000999019A0068096848400099C30F0798CC
:10ECA000DB0723430360826041600BB0F0BD1FB5FA
:10ECB000002300920A46014601A8FFF71DFE01ABA2
:10ECC00007CB04B010BDF0B585B0012300920A4611
:10ECD000014601A8FFF710FE01990F220298920247
:10ECE000CF0F4900039E49088C1AFF070021002816
:10ECF00000DB0C46450021486D08844206D30D46D2
:10ED00000E460446102108460020C0462005E90AA8
:10ED1000084369053843F20A05B01143F0BD1FB539
:10ED2000002300920A46014601A8FFF7C9FE01AB85
:10ED300007CBC6E71FB5012300920A46014601A88A
:10ED4000FFF7BEFE01AB0F2407CBA402C30F4000A8
:10ED5000DB074008001B002900DB002049000005FC
:10ED60004908CC0A204349051843D20A1143A8E7B1
:10ED700002C0FFFF013C0000FF3F0000FF07000052
:10ED800070B505460C460A2000E06D1C00F040F806
:10ED9000002D06D028780028F7D102E0641C00F08E
:10EDA00037F8002C02D020780028F7D10A2000F094
:10EDB0002FF870BD10B500F033F8FFF72FFC10BD31
:10EDC00010B5012805D0002103A0FFF7D9FF0120CD
:10EDD00010BD09A1F8E7000053494752544D454D75
:10EDE0003A204F7574206F662068656170206D65EC
:10EDF0006D6F7279000000003A2048656170206DE7
:10EE0000656D6F727920636F7272757074656400DE
:10EE100008B5694608700320ABBE08BD7047000006
:10EE200010B5014602A0FFF7ABFF012010BD0000A6
:10EE300053494752545245443A20526564697265B9
:10EE400063743A2063616E2774206F70656E3A2098
:10EE50000000000010B503F08FFE03F09AFC10BD17
:10EE60000021C16070470000F8B52A480069009091
:10EE70002948C16B00294CD028494968002948DA43
:10EE80000021C163264E274D0C46A700F0590028EB
:10EE90003BD02549095D002920D00099E140C907F0
:10EEA0000ED079190968090CC943890716D01F4A81
:10EEB0001168E140C90711D09268012190470DE027
:10EEC00079190968090CC943890707D1174A51689C
:10EED000E140C90702D09268022190477819016881
:10EEE0008903890F11D00268032109048A43026053
:10EEF000009AE240D20703D002680A43026004E0AD
:10EF000001680122520411430160641CE4B21F2C09
:10EF1000BBD3F8BD000500504061004000630040D5
:10EF20006C2B002000070050E82B00202828002030
:10EF30007047000010B50848007801214840064994
:10EF4000087006480068002804D008460078034985
:10EF50000968884710BD00000C28002010280020F8
:10EF600070B50C480068002810D00A480068804737
:10EF7000044600BF2546002D06D000BF00221146E2
:10EF8000284601F0C5FB00BF00BF01E003F09AFB7B
:10EF900070BD0000A0280020F8B528480126018C8B
:10EFA000CAB22749012A17D1838C1B0714D1038DBC
:10EFB0001B061C0F03D1848D2406240F0FD01B0FBA
:10EFC000012B03D1848D2406240F08D0032B03D1F9
:10EFD000838D1B061B0F02D0012A07D014E0194AAB
:10EFE0004A600122184BD2039A6102E0828C120718
:10EFF0000AD1028D1206120F042A05D1808D000657
:10F00000000F01D1114886600D4800258661104C23
:10F010006560800586600F4F606800280DD1C820AC
:10F02000FDF732F96D1CBD42F6D305490020886119
:10F030008805866060680028FCD0F8BDC00F00F02D
:10F0400000050040DFFF07C0006C004000060040E4
:10F0500000010040881300000D490020C8600D48E1
:10F0600001880D48C1600D4A0D491378002B01D06D
:10F070000B8803605378002B01D04B884360927853
:10F08000002A01D089888160064901200860704704
:10F0900040A100407428002040A5004076280020B0
:10F0A0008028002000A000400C4841680A060C4956
:10F0B00004D5CA69002A01D0012106E04068400752
:10F0C0000AD58868002807D0002106480068002873
:10F0D00002D0044A926810477047000000230040A5
:10F0E000002100408C280020014600228A56002A78
:10F0F00001DD00201EE000228A56002A01DA0420E9
:10F1000018E001228A56002A01DD012012E00122C6
:10F110008A56002A01DA05200CE002228A56002ACB
:10F1200001DD022006E002228A56002A01DA0620CA
:10F1300000E00720704700B5002000F021FF00BD6F
:10F1400070B505462846FFF7CFFF0446E81CFFF7D9
:10F15000CBFFC000204384B2A81DFFF7C5FF80018C
:10F16000204384B2204670BDF0B58FB02D480278A0
:10F170002D4901A800F0A0F9382201A92B48FDF77C
:10F18000BFF828480078002825D12848007B0128AE
:10F190000CD126490420085E009008460223C35E75
:10F1A0000022825E22A1274800F0E4FC1F48407B39
:10F1B00001280BD11D480A21415E08230091C35E3E
:10F1C0000622825E20A11F4800F0D4FC14212348AF
:10F1D00000F091F824E015482030007801281FD174
:10F1E0001249C86AFDF7C2FF04460D460F49886AF6
:10F1F000FDF7BCFF06460F460C49486AFDF7B6FF0F
:10F2000002460B4601970096039502940D910C90CF
:10F2100013A10C4800F0AEFC6421104800F06BF81C
:10F220000FB0F0BDE1280020EB280020442F002083
:10F230004759524F3A2025642C2025642C20256400
:10F240000A000000282F00204143433A2025642C67
:10F250002025642C2025640A00000000EC280020F2
:10F2600070697463683A25662C7961773A25662C53
:10F27000726F6C6C3A25660A0000000038B50121F7
:10F280000E48017401200E490870084600787D235D
:10F290001B010222322100900A4800F0B3F8044614
:10F2A000002C05D0224608A10D4800F063FC03E0C5
:10F2B0000CA10B4800F05EFC38BD0000642F00205C
:10F2C000E1280020EB2800204D5055363036302004
:10F2D000696E6974206661696C25640A000000002B
:10F2E000282F00204D50553630363020537461722F
:10F2F000740A0000704770B505460C46204605F0BC
:10F30000D3F970BD10B504467D21C900614308469C
:10F310000249FDF7B1FC80B210BD0000710200008F
:10F32000F8B504460D4616461F462846FFF7EAFF85
:10F3300020803046FFF7E6FF6080A7800698A07126
:10F340002088042801D204202080208801218903FC
:10F35000884201D9084620806088042801D2042010
:10F360006080608801218903884201D90846608055
:10F370002046F8BD10B504461F212046FDF727FCA6
:10F380000020E07710BD10B504461F212046FDF790
:10F390001EFC0020E077012040022084204610BDA2
:10F3A00030B50170428083800478012C02D10024A2
:10F3B00044801BE00478032C0CD14488A02C01D29B
:10F3C000A024448044880125AD03AC420ED92C46CC
:10F3D00044800BE04488202C01D2202444804488BF
:10F3E0000125AD03AC4201D92C464480002B05D049
:10F3F0008488034DAC4201D92C46848030BD000086
:10F40000FF3F0000FEB50C4615461E46089F0D2125
:10F410000C2003F0D1FA0D210C2003F057FB002043
:10F4200003F048FC002801D00120FEBD782004F044
:10F43000A9FA782003F0A2FB002F20D1204604F087
:10F440004DFA304604F084F9284604F047F801A844
:10F4500003F020FC684603F0F9FB02A803F0CEFBA2
:10F4600068460088864207D16846007A854203D103
:10F4700068468088A04201D00220D6E717E06420C9
:10F4800004F02CFA01F0E8FE0A48FFF759FE01905B
:10F4900002F01EF8FF2074300290029801F084FD03
:10F4A000642001F0D9FF012004F00AF900BF002018
:10F4B000BBE70000D8280020F7B59EB020980028B0
:10F4C00025D11BA8831C0EAA10A9023100900FA8F9
:10F4D00003F04CFD10A92E20085E70210840002882
:10F4E00003D0012010A9087202E0002010A90872C0
:10F4F00010A92E20085E08210840002803D0012012
:10F5000010A94872F6E0002010A94872F2E01BA88A
:10F51000811C0EAB13AA009101902C390FA801F0A9
:10F52000A9FE10A92E20085EFF2101310840002805
:10F530007ED01398FDF730FF9D21C9050D90FDF792
:10F540003FFE04461498FDF727FF9D21C9050D9045
:10F55000FDF736FE05461598FDF71EFF9D21C905EE
:10F560000D90FDF72DFE06461698FDF715FF9D211F
:10F57000C9050D90FDF724FE0746294601208007A6
:10F5800005F000FA3946059005F0FCF92146079090
:10F590000120800705F0F6F93146059005F0F2F9F3
:10F5A0000690079905F052FA0890089801F0FAF8C9
:10F5B0000990FDF7DBFD534A534B0B910A90FDF781
:10F5C000B1FC0D910C90FDF76FFC189031460120B5
:10F5D000800705F0D7F93146039005F0D3F92946A5
:10F5E00005900320800705F0CDF92946039005F02A
:10F5F000C9F90490059905F029FA7F21C9050690FB
:10F6000005F07AF9214608900120800705F0BAF943
:10F610002946049005F0B6F931460690012080078E
:10F6200005F0B0F93946049005F0ACF9059000E01A
:10F630005CE0069905F060F90790089900F03DFD3F
:10F640000990FDF793FD2F4A2F4B0B910A90FDF780
:10F6500069FC0D910C90FDF727FC1A90394638464D
:10F6600005F090F931460690304605F08BF92946B1
:10F670000490284605F086F921460290204605F0C0
:10F6800081F90190029905F037F90390049905F08A
:10F69000DDF90590069905F0D9F93946089020461C
:10F6A00005F070F931460590284605F06BF9049095
:10F6B000059905F021F901218907069005F062F905
:10F6C0000790089900F0F9FC0990FDF74FFD0D4AED
:10F6D0000D4B0B910A90FDF725FC0D910C90FDF759
:10F6E000E3FB1990012010A9087702E0002010A97F
:10F6F000087700BF38220FA91E98FCF701FE21B041
:10F70000F0BD00006666666666A64C4070B50446AD
:10F710000D46256000206060204608300021A16071
:10F72000E16021610022C260026100BF0160114AF4
:10F73000C26000BF00BF0446083C2068002814D106
:10F74000206880000C490858002808D121688900E9
:10F750000A4A5058804721688900074A505020685B
:10F76000800005490858606001E000206060204684
:10F7700070BD000079470200082800204C4B0200B1
:10F7800038B50446304820600023A0221946201DC9
:10F79000FFF706FE041F20460A30FFF7F4FD04467B
:10F7A0000A3C0020034601229203114600902046A5
:10F7B0002C30FFF7B5FD04462C3C20463430FFF7D3
:10F7C000E2FD0446343C002156200155A1655C2031
:10F7D0000155204660301D4921660021416000BF6F
:10F7E0000446603C20466C3004F0DAFF04466C3C72
:10F7F00000212046803004F0B1FF0446803C2046C2
:10F800009430134901600021416000BF0446943CDC
:10F810002046A0300F4901600021416000BF04462E
:10F82000A03C2046AC300C4901600021416000BF83
:10F830000446AC3C20460A30FFF79CFD204634309D
:10F84000FFF798FD204638BD585A0200185A0200AA
:10F85000385A0200485A0200285A020070B504467D
:10F860000D4618212046FDF7B4F92946204602F03E
:10F87000C1FB204670BD70B50446006801220369D3
:10F8800000212046984705000DD420680222036914
:10F890000021204698470646206800220369294631
:10F8A00020469847304670BD0020704710B50C4682
:10F8B000001D04F08BFB204610BD000010B50901AF
:10F8C0000C18A0690C34002804D1054A05490648E3
:10F8D00002F066FFE06801682046884710BD00001E
:10F8E0000E020000C15D0200BC5D0200FFB585B0E4
:10F8F000214901600021416081601C4602231022E1
:10F900001E490C3000F03FFC05460C3D0027046208
:10F91000380144191A4800906E461A480C34039076
:10F92000B4420ED0E1682046002901D0896888479A
:10F9300003983146002802D0426820469047039839
:10F94000E06003996846002901D0896888477F1CD8
:10F95000022FDDD3281D079A069904F0A9FA281D65
:10F96000E96A04F07BFA2A460749281D04F024FBC3
:10F97000284609B0F0BD0000005C020061EE010005
:10F980007FFF0100B05D0200BDF8010038B50090B6
:10F99000014684690831204604F030FC38BD016816
:10F9A0008968084710B5014682690831104604F09D
:10F9B00082FC10BD10B50446074820600020A060FE
:10F9C000E0602061606102F0BFFA0449A06104F0C8
:10F9D0008EFC204610BD0000185C02009FF901005B
:10F9E00010B504460448206021460831A06904F09F
:10F9F00062FC204610BD0000185C020030B583B0E8
:10FA000004463A226846027044702004020E68469A
:10FA100082702002020E6846C270220E0271FCF74C
:10FA2000B3FF050009D02068C16920468847002837
:10FA300003D028460021FCF7D1FF284603B030BD93
:10FA4000F8B5174D04462868002801D1281D286004
:10FA50000146281D0090814204D05B2211491248C2
:10FA600002F09EFE0021114A2F6810230E468800E6
:10FA70001558A54200D11650491C5B1EF7D1084805
:10FA8000002F01D0016801E0011D01600098814252
:10FA900004D05B220349044802F082FEF8BD000056
:10FAA0006C280020685D0200545D02003C2D00209F
:10FAB00010B50021FCF792FF10BD000010B51C46E8
:10FAC000029BFFF713FF2146303000F06FF8044926
:10FAD00030380160034941630349016310BD0000F0
:10FAE0002C5C0200A85C02004C5C020010B50A49C4
:10FAF00001600A4941630A490163303000F08EF821
:10FB000030380849016004460223102206490C30AF
:10FB1000FDF7B8F9204610BD2C5C0200A85C02007D
:10FB20004C5C0200005C0200E548020070470020C7
:10FB300070470020704700207047F8B50546006800
:10FB40000E460C468F18C16C28468847BC4209D027
:10FB500028682178426C2846641C9047401C01D0DC
:10FB6000BC42F5D12868016D28468847A01BF8BD26
:10FB7000002070470FB470B504460068C16C204681
:10FB8000884706AD6069FCF79CFE2A4660690599C6
:10FB9000FCF7F8FC05462068016D2046884728469A
:10FBA00070BC08BC04B018477047000010B50F4A7D
:10FBB00004C0002200F042F9041F0D4820600D48E7
:10FBC0006060002060610CA1204600F0E3F86061F5
:10FBD000000002D0FFF76CFF05E0FCF7C3FB0168F3
:10FBE00006A001F08BFE204610BD0000B45B0200B1
:10FBF000B85C0200145D0200772B0000537472653C
:10FC0000616D206F626A206661696C7572652C2077
:10FC10006572726E6F3D25640D0A000010B50446D2
:10FC200005482060054860606069FCF7E5FE201D1E
:10FC300000F024F9001F10BDB85C0200145D020042
:10FC400030B585B0044601F0AFF82046FFF7AAFEB4
:10FC500000206D4628340390AC4210D0E168204665
:10FC6000002901D089688847002C08D003982946CC
:10FC7000002802D04268204690470398E06003992C
:10FC80006846002901D08968884701F0F1F805B07D
:10FC900030BD000010B50446C3688268016A406A3E
:10FCA000521843412046FFF771FE606B283400284C
:10FCB00004D1054A0549064802F072FDE068016872
:10FCC0002046884710BD00000E020000C15D020002
:10FCD000BC5D020070B504462046FFF76BFE04468B
:10FCE000204600BF04460C482060204628300022F1
:10FCF000002A02D10021C16009E00146084600BF88
:10FD0000031E00D01A60054DCD6000BF00BF00BFCC
:10FD10000446283C204670BD245D0200B05D020010
:10FD200070B584B01A490446016001F03DF82046E0
:10FD3000FFF738FE283400206D4626460390AC427B
:10FD400010D0F1683046002901D089688847002C1E
:10FD500008D003982946002802D0426820469047E0
:10FD60000398E06003996846002901D089688847B4
:10FD700001F07EF8F0683446002802D081683046F1
:10FD8000884720462838FFF72BFE04B070BD0000DE
:10FD9000245D020010B5FFF731FE10BD10B504461A
:10FDA000406B2834002804D1044A0549054802F074
:10FDB000F7FCE06801682046884710BD0E0200008D
:10FDC000C15D0200BC5D0200007B704770B5064655
:10FDD0000D46164804F0A2FC15480468002C20D0FB
:10FDE000A06800281AD02A463146FCF77BFE00287E
:10FDF00014D1A068FCF754FEA8420FD10B4801684B
:10FE0000002901D1011D0160001D814204D05B2247
:10FE10000849094802F0C4FC204670BD6468002C03
:10FE2000DED1024804F07AFC002070BDFC280020DE
:10FE3000F8280020685D0200545D020070B5044699
:10FE4000002666600A48A16020600D4622730948BA
:10FE500004F064FC002D04D0074801686160046070
:10FE600000E06660034804F059FC204670BD0000C5
:10FE70004C5D0200FC280020F828002010B5044644
:10FE800011482060114804F049FCA06800280FD0F8
:10FE90000F490868A04202D16068086008E0416824
:10FEA000A14203D008464968A142FBD16168416084
:10FEB000064804F033FC207B002802D1201FFFF706
:10FEC000BFFD204610BD00004C5D0200FC28002054
:10FED000F828002010B504464068002803D0FFF73A
:10FEE00073FF012801D0002010BD60680028FBD0FE
:10FEF000001F10BD10B504464068002803D0FFF76E
:10FF000063FF002801D0002010BD60680028FBD0EE
:10FF1000001F10BD4068002800D00120704710B5B8
:10FF20004068002804D0FFF74FFF002801D00020D0
:10FF300010BD012010BD0068704710B504460020B8
:10FF40002060606008782F280FD1487800280CD0F6
:10FF50004B1C00211A46236010782F2807D0002858
:10FF600007D0521C491C2260F6E7204610BD501CE9
:10FF700020601846FFF72AFF6060204610BD7047DA
:10FF80000146014870470000802D002070B50446EE
:10FF900020461A49216000BF04461948206000200D
:10FFA0002071A060254610352846FFF7E9FB05467D
:10FFB000144828600021B8204155B9204155BA2085
:10FFC00041552E46F8363046FFF784FE064600BF00
:10FFD0000D483546F83D30600021C943FF203130DF
:10FFE000415300BF2C46103C0021FF2049300151F5
:10FFF000001D0151001D0151204670BDD459020061
:020000040002F8
:10000000E45A0200285B0200385D020010B5044685
:10001000064820602046103000F00AF80446103CE4
:100020002046FFF767F90446204610BDE45A020057
:10003000F8B506461D483546F8352C46306000BFF9
:1000400025461B4820602046FFF7FAFD2746283743
:10005000F868002803D0F86881683846884700BFF0
:100060003C46283C204600BF04462046FFF7B8FC2B
:10007000044600BF2646F83E34460E4830603046FF
:10008000AC3004F0CBFB0446AC3C0C3804F002FC72
:100090000446A03C0C3804F0DFFB0446943C3438A2
:1000A00004F09EFB0646603E3046F8BD285B020029
:1000B000245D0200585A0200704770B504460D4690
:1000C0002946204600F0FAFB70BD704710B5303865
:1000D000FFF7ECFB10BD7047002803D010B5FCF70C
:1000E00076F910BD7047F8B5040C8BB2264682B283
:1000F0005E43104658430D0C370C3604002180191E
:10010000164679416E43370C3604801926467941EC
:100110006E438919F8BD30B47446641E2578641C9A
:10012000AB4204D3635D5B00E31830BC18471D4647
:10013000F8E700004900CA020243100000D0042082
:100140004A0D01D001221043044A490D914201D1C8
:1001500002210843012800D105207047FF07000055
:100160004100080200D004200A0E01D001221043F1
:10017000090EFF2901D102210843012800D10520E1
:10018000704701207047FFB581B01C4617460E002E
:1001900007D0019D02E02846B047ED192046641EB5
:1001A000F9D2019805B0F0BD10B50020FDF71EFD95
:1001B00010BD10B50121FDF733FD10BD10B504F0E1
:1001C0009BFB10BD10B500210846FCF7F9FF10BDE0
:1001D0005E2110B5C9430807FDF722FD10BD0000E0
:1001E00010B50448FFF7D2FE0446034A0349FFF75F
:1001F000C8FF10BD802D002000C001000D000200CE
:1002000038B54B20C00100230B220921009004487F
:10021000FFF754FC0446034A0349FFF7B2FF38BD19
:10022000F82E002000C00100EDFA010070B50C4C62
:100230002046FFF7BFFB0446204600BF044609489E
:10024000206000212046283004F038FB0446283C7A
:1002500000BF2546044A05492846FFF792FF70BDB6
:1002600048290020245D020000C0010021FD01009A
:1002700010B5074C15212046FFF7F0FA044615216A
:1002800020461830FFF7EAFA0446183C00BF10BDBC
:10029000C82F0020014800BF70470000EC28002054
:1002A00070B5074C112518212046FCF792FC294611
:1002B000204601F08DFE00BF00BF00BF70BD0000F2
:1002C000B02F002070B50A4C1625012618212046B3
:1002D000FCF77FFC32462946204601F0ABFE00BF0A
:1002E000044C00212046FFF711FA044600BF70BD00
:1002F0007C2F0020942F0020014800BF7047000091
:10030000EB28002002486A46C008C0007047000081
:100310002F31002030380A2801D2012070470020F8
:10032000704710B502F029FC10BD0000032801DA67
:100330000020704770B581000D48002209188039EF
:10034000486F551E4A6700280AD0016849698847E6
:1003500004000BD5FCF706F861420160284670BD29
:10036000FCF700F809210160284670BD002070BD2F
:100370003C2D002070B50025ED43032805DAFBF77E
:10038000F1FF05210160284670BD0C49800040182E
:100390008038406F00280AD00168896A88470400C5
:1003A000F2D5FBF7DFFF61420160284670BDFBF725
:1003B000D9FF09210160284670BD00003C2D0020B6
:1003C000032801DA012070470C49800010B540185D
:1003D0008038406F00280AD00168C9698847040046
:1003E00004D5FBF7BFFF61420160002010BDFBF7A1
:1003F000B9FF09210160002010BD00003C2D002044
:10040000F3B589B07B490998FCF7E6FB4B257A4C9C
:10041000ED01002810D079490998FCF7DDFB002890
:1004200019D077490998FCF7D7FB002822D0754CE2
:10043000206800282DD02EE02068002808D10B224B
:100440000921714803F034FD29466F4803F006FD89
:1004500000200BB0F0BD2068002808D10B22092134
:10046000694803F025FD2946674803F0F7FC0120A1
:100470000BB0F0BD2068002808D10B22092162488A
:1004800003F016FD2946604803F0E8FC02200BB09B
:10049000F0BD201D2060261DB04204D05B225B49C8
:1004A0005B4802F07DF9216800245A4D671EA000C8
:1004B0002858002803D0641C102CF8D301E0102C1D
:1004C00013D3FBF74FFF182101604E480168002944
:1004D00001D1011D0160B14204D05B224B494C485F
:1004E00002F05EF938460BB0F0BD0020C043A70013
:1004F000E8514448002901D1011D01600068B04263
:1005000004D05B224149424802F04AF900200090A1
:100510000998099900783A2811D004A8FFF70DFD31
:1005200004A8FFF7F7FC002829D004A8FFF7F7FC80
:10053000002804A81AD0FFF7DDFC009056E04A78A6
:10054000000A000210438A78FF231B02120298431C
:100550001A401043CA781B02120498431A401043F1
:1005600009790002000A09060843E6E7FFF7B2FC32
:10057000060004D00A9988070AD5022011E0FBF78B
:10058000F1FE022101600020E851401E0BB0F0BDD9
:10059000480701D5012004E0080701D5092000E043
:1005A00000200A07920F02D001225202104349078D
:1005B00002D5012189020843029004A8FFF7BBFC81
:1005C0000246306869468068029B8446304666462B
:1005D000B047002809D00446FBF7C4FE6142016021
:1005E0000020E851401E0BB0F0BD0098E851E01C1F
:1005F0000BB0F0BDC657020090280020CD57020076
:10060000D55702006C28002098280020685D020061
:10061000545D02003C2D002070B50022551E0328B9
:1006200005DAFBF79FFE1D210160284670BD0C4BCB
:100630008000C0188038406F00280AD003681B690A
:1006400098470400F2D5FBF78DFE61420160284611
:1006500070BDFBF787FE09210160284670BD0000D0
:100660003C2D002070B515460E46032819DA1A48AD
:100670000068002809D10B220921184803F018FC52
:100680004B21C901154803F0E9FB0024002D06D9D0
:10069000315D124803F09AFC641CAC42F8D32C463E
:1006A00010E00F49800040188038406F00280BD0C0
:1006B0000168CB6831469847040003D5FBF752FE2A
:1006C00061420160281B70BDFBF74CFE09210160EF
:1006D0000020C04370BD0000902800209828002012
:1006E0003C2D002010B5044608488068A0420AD876
:1006F0000648C068A04206D3204602F041F8002810
:1007000001D0012010BD0020FCE7000014290020CA
:1007100010B50B4600BF81B2002900D010BD00BF4C
:1007200000BF00BF00BF00BF00BFBFF34F8F00BFBF
:1007300000BF00BF0649074CE16000BF00BF00BF1B
:10074000BFF34F8F00BF00BF00BF00BF00BFFDE77A
:100750000400FA0500ED00E0FFB581B005460E4645
:1007600000240DE0A00008490858002806D0A00089
:100770000F5831462846049B039AB847601CC4B200
:100780000A2CEFDB05B0F0BD8029002070B50546CE
:100790000C46238A2079E26821680E682946B04712
:1007A00070BD0000F8B504464721400049060D22FF
:1007B00041181206914253D83F21490688421BD95D
:1007C00060007F214008C90504F034F90021C943C5
:1007D000FDF726FA074603F061FC002C04DA2F4DE2
:1007E0002D4EA907484001E02D4E2E4D03218907CB
:1007F00004F0C8F8044606E00026214635460846BF
:1008000004F0C0F807462849384604F0BBF82749E9
:1008100004F072F8394604F0B5F8254904F06CF894
:10082000394604F0AFF8234904F066F8394604F07D
:10083000A9F8214904F060F800903946204604F0F8
:10084000A1F8009904F09EF807462946204604F0D6
:1008500053F8394604F050F8314604F04DF8F8BD2D
:1008600039214906884208D22046FFF779FC04283E
:1008700001D1FFF7ADFC2046F8BDFF2109068842F3
:1008800003D92046FFF795FCF8BD0120FCF7E6FDF3
:10089000FFF798FCF8BD00000000C9BF22AAFDB90F
:1008A0000000C93F22AAFD3924FE1C3DC78AD83C5E
:1008B0001E67383D1B93993DAFAA2A3EF0B50C4602
:1008C00001461D224B00D2069F18E5260546360636
:1008D000620087B02046B7427DD21D27FF06D71998
:1008E000B74278D24F0043003E0E1A0EB21A1B2AAE
:1008F00007DD002902DA754807B0F0BD744807B07B
:10090000F0BD1A26F24217DA002807DA002902DAC7
:10091000704807B0F0BD704807B0F0BD21462846CA
:10092000FCF74EFC0446FFF71BFC042801D1FFF73F
:100930004FFC204607B0F0BD9F4211D9002902DAD2
:10094000664F674E01E0674F674E23462C461D46B3
:1009500001220346D20708465440504019460BE096
:10096000002807DA002902DA604F614E04E0614F87
:10097000614E01E000263746421A012352001B0651
:100980009A4230D248405D490BD5BF200006039003
:10099000384604F05BF807465949304604F056F8EB
:1009A0000AE03F2000060390384603F0A5FF074603
:1009B0005349304603F0A0FF06462846039903F04A
:1009C000E1FF214603F098FF00902146039803F0D1
:1009D000D9FF294600E03AE004F02CF80099FCF732
:1009E000EFFB044604E021462846FCF7E9FB0446F9
:1009F000014603F0C7FF4349009003F0C3FF42499B
:100A000003F07AFF009903F0BDFF404903F074FF43
:100A1000009903F0B7FF3E4903F06EFF009903F021
:100A2000B1FF3C4903F068FF05462046009903F0FA
:100A3000A9FF294603F0A6FF314603F05DFF2146DA
:100A400003F05AFF394603F057FF07B0F0BDFF2609
:100A50003606B34201D8B24205D901462846FFF70F
:100A6000ADFB07B0F0BD2F4607437F000AD0B3426D
:100A70000CD1B2420AD101229207904391430D4614
:100A800004462FE7FF22D2051043F9E7B34208D00E
:100A9000460006D05340F4D4002A08DB9F26F60512
:100AA00007E0FF22D2051143E00FC0071AE75F26D7
:100AB000F6053146284603F065FF054631462046D7
:100AC00003F060FF044629460CE70000DB0FC9BFB6
:100AD000DB0FC93FDB0F49C0DB0F49400000C9BF36
:100AE00022AAFDB90000C93F22AAFD39000049C071
:100AF00022AA7DBA0000494022AA7D3A0060ED3E5C
:100B0000C30ACE372DAD65BD8FB8D53D0FB511BE2B
:100B100061C84C3EA8AAAABE04490978002901D19F
:100B2000012100E000210846704700002028002035
:100B30000146002900D170470448884204D804487F
:100B4000814201D20120F6E70020F4E714290020B9
:100B50002429002010B501460022104840780028C2
:100B600019D00E480078C0000C4B403BC0180860FC
:100B700040331B78581CC3175B0F1B18DB10DB00BE
:100B8000C31ADCB2054B1C7018464078401EC3B235
:100B9000024843700122104610BD00008C2A00203C
:100BA00001460020054A52788A4206DB034A527801
:100BB000521AD3B2014A5370012070478C2A002088
:100BC0007FB506460C46002E02D0304604B070BDFC
:100BD00020780009052804D0062821D007283ED116
:100BE0003BE0A0886946088120690090684603F0D0
:100BF000D7F8002801D005250CE001980088208155
:100C000001988188A1810123174A1848019900F0B1
:100C1000F9FF05462078F02188437030207020E0ED
:100C2000134B6A4621460C31002000F083FE002859
:100C30000BD02078F0218843703020700C480021C0
:100C40000160416081600B4D06E00123064A0748C0
:100C5000019900F0D7FF054603E0064D01E00B25A2
:100C600000BF00BF2846B1E7744B020014290020E2
:100C7000BC2A002034120000FFB581B005460E46A4
:100C8000174614484078072802D1042005B0F0BD6B
:100C9000104909780F4A52788818C117490F091866
:100CA000C910C900411AC9B20091142100984843E3
:100CB0000849091D4418256026710498A060E76062
:100CC0000A982082081F4078401C091F487002F0D3
:100CD0009DFFDBE7C82A002010B5144909781422CB
:100CE0005143124AA03A88181421FBF772FF0F48AB
:100CF0004078002811D00D490978481CC117490FC8
:100D00000918C910C900411ACAB208490A70084630
:100D10004078401EC1B20548417004484078002820
:100D200001D0012010BD0020FCE70000482A00206F
:100D300070B51B480078142148431949A03945185B
:100D400028780007000F0300FFF7E5F9071E050BE1
:100D50000C1213191E000021084601F05BFC04462A
:100D600014E000BF2946002003F0AEF904460DE070
:100D700000BF29460020FFF723FF044606E00020BD
:100D800000F0A6FF044601E00F2400BF00BF002CC6
:100D900002D00448844201D1002070BD2046FCE707
:100DA000482A00203412000070B5EFF31080C0070D
:100DB000C4170120641C444072B60D4D68680028B9
:100DC00000D12C706868401C04D1432209A119A0ED
:100DD00001F0E6FC6868002806D0002C04D1472208
:100DE00004A11EA001F0DCFC6868401C686070BDB6
:100DF000F0280020433A5C6D6A5C776F726B737009
:100E00006163655C626D5F777261705C3132313550
:100E10005C6D6265642D6F735C706C6174666F727B
:100E20006D5C6D6265645F637269746963616C2E89
:100E300063000000696E746572727570745F656E30
:100E400061626C655F636F756E746572203C2055DE
:100E5000494E5433325F4D4158000000696E74654D
:100E60007272757074735F64697361626C6564003B
:100E700010B50E4C6068002816D0EFF31080C00744
:100E8000C0170121401C484004D1582208A118A0D5
:100E900001F086FC6068401E60606068002803D135
:100EA0002078002800D162B610BD0000F028002094
:100EB000433A5C6D6A5C776F726B73706163655CFB
:100EC000626D5F777261705C313231355C6D626585
:100ED000642D6F735C706C6174666F726D5C6D62B3
:100EE00065645F637269746963616C2E63000000FE
:100EF000696E74657272757074735F646973616230
:100F00006C656400F8B50446E078C02108400090A4
:100F1000E0788506AD0E6078C007C00F002813D0BA
:100F2000EE102846E917490F0918C910C900691AB7
:100F3000491CCFB20C480068002804D00A48394642
:100F400002683046904700BF6078082108400028BA
:100F500008D005484068002804D0009A9011024A41
:100F6000516888470020F8BD182C002038B5044689
:100F7000002C09D0202168460170282141703021C1
:100F800081703821C17004E0A32204216846FBF778
:100F9000F9FD6A460421034802F064FD02F0ACF951
:100FA00038BD00009E0A00003EB504460221684696
:100FB0000170CA214170E32181700921C1706A4624
:100FC0000421682002F04EFDA321684601704020F4
:100FD0002040002807D0C02168464170C821817098
:100FE000C221C17004E0A321684641708170C170C4
:100FF000FF2081302040002807D0C42168460171BD
:10100000CC214171C621817104E0A32168460171A0
:1010100041718171A3216846C171017241726A46B2
:101020000A21644802F01EFDA007800F002803D0AB
:1010300020206946087002E0D820694608706A4698
:1010400001215C480F3002F00DFD202020400028D7
:1010500003D0012000F0B6F802E0002000F0B2F862
:10106000FF208130204000281DD0FF20013020408B
:10107000002809D0B221684601708B214170B62149
:1010800081709B21C17008E0B02168460170802109
:101090004170B42181709021C1706A460421454895
:1010A000401F02F0DFFCE007C00F002824D0F8202A
:1010B000694608706A4601218B20000102F0D2FCCB
:1010C000FA21072000F020FB072000F0E4FA0120BD
:1010D00000F007FB642000F0EDFBFF20F53000F08E
:1010E000FBFBC821344800F095FA282000F0AFFA45
:1010F0000A2000F0BEFA08E0D820694608706A4667
:1011000001218B20000102F0ADFC022020400028CC
:1011100003D0D9206946087002E0D82069460870DB
:101120006A460121254802F09DFC04202040002849
:1011300003D0012000F072F802E0002000F06EF809
:1011400010202040002803D00120FFF70FFF02E00D
:101150000020FFF70BFF082020431949488102F0C7
:10116000CBF800201649887340202040002803D087
:101170000846807B801D8873FF2081302040002836
:1011800004D00F48807B801D0D49887314202040B7
:10119000002804D00A48807B103009498873A007D2
:1011A000800F002804D00648807B001D0449887306
:1011B00000203EBDA70A000009E3CA023D07000067
:1011C000182C00203EB50446002C0DD00DA10A6855
:1011D000486889680092029101906A460921972027
:1011E000C00002F03FFC3EBD09A211685068926841
:1011F0000292009101906A4609219720C00002F0F6
:1012000031FCF0E7B8AAB38DB4980D355D0000004D
:10121000B8AAAAAAB088C3C5C700000038B504465A
:10122000002C09D0C02168460170C2214170C42140
:101230008170C621C17004E08B2204216846FBF74F
:10124000A1FC6A460421034802F00CFC02F054F8A9
:1012500038BD0000980A000010B5C8230122920290
:101260000249034801F0B2FD10BD0000D04B02005E
:10127000F60B0000FFB58DB007461546169E0024FC
:10128000002030807349887B05A9179A01F08AFFF6
:10129000002802D0601E11B0F0BD6E4840891421B4
:1012A0000840002869D06946087D0006497D090488
:1012B00008436946897D090208436946C97D084398
:1012C00028606946087E0006497E0904084369468D
:1012D000897E090208436946C97E084368606946F9
:1012E000087F0006497F090408436946897F09028F
:1012F00008436946C97F0843A86008A90878000622
:1013000049780904084308A989780902084308A90B
:10131000C9780843E86020461030C4B22868001439
:101320000190686800140290A86800140390E868AF
:1013300000140490019840430299494341180398CE
:101340004043091804984043081800900F210906EB
:101350000098884204DB112109060098884205DDC7
:1013600001F0CAFF00203080401E94E70020305E6C
:10137000FF2101310843308000BF364840894021B9
:101380000840002824D005A8005D000205AA611CC1
:10139000515C084301B20E98018005A9A01C085CAD
:1013A0000002E11C515C084301B20E98418005A97E
:1013B000201D085C0002611D515C084301B20E98BB
:1013C0008180A01DC4B20020305E08210843308017
:1013D00020484089FF2181310840002821D005A8FC
:1013E000005D000205AA611C515C084300B2388010
:1013F00005A9A01C085C0002E11C515C084300B276
:10140000788005A9201D085C0002611D515C08431D
:1014100000B2B880A01DC4B20020305E7021084325
:1014200030800C48807A8007800F002803D005A9FF
:101430000819FFF767FD00BF03F084F87D21C9009C
:101440000390FBF719FC049010990498086000BF02
:10145000002020E7182C002030B585B0044616A2E5
:1014600007CA02AB07C3C82C03DD0020C04305B088
:1014700030BD2146C820FBF70DFC401E85B2281266
:10148000694608704D706A4602210E4802F0EAFA79
:10149000002802D00020C043E9E702AA0C210A4834
:1014A00002F0E0FA002802D00020C043DFE707483E
:1014B00084810020DBE70000FEF2ABC4AAF1DFDF8D
:1014C000BBAFDFDF16020000C10A0000182C0020AD
:1014D00010B586B0044649A00068039048A0006893
:1014E000029048A00068019047A000680090A00703
:1014F000800F03A9095C68460175E006800F03A907
:10150000095C684641752006800F03A9095C68469E
:101510008175A007800F02A9095C68460174E00686
:10152000800F02A9095C684641742006800F02A959
:10153000095C6846817405AA0321344802F092FAD6
:10154000002803D00020C04306B010BD04AA032128
:101550002E48001D02F086FA002802D00020C04369
:10156000F2E701980590009804900420204000289C
:101570000AD06846017D0120014368460175007C60
:1015800001210843694608742020204000280AD021
:101590006846417D0120014368464175407C012138
:1015A000084369464874FF200130204000280AD0D3
:1015B0006846817D0120014368468175807C012158
:1015C00008436946887405AA03211120800102F0AE
:1015D00049FA002802D00020C043B5E704AA03213D
:1015E0000A480B3002F03EFA002802D00020C04327
:1015F000AAE7074804810020A6E700004CCD6C0054
:101600000CC92C00365676002646660026040000DB
:10161000182C0020F8B506460D467D21C90030463D
:10162000FBF738FB68430446210E68460170200230
:10163000010E684641702004010E68468170C47036
:101640006A460421FF205D3002F00CFAF8BD38B57F
:10165000044605212046FBF71DFB84B22112684693
:10166000017044706A460221FF205B3002F0FAF9F3
:1016700038BD38B5044605212046FBF70BFB84B284
:1016800021126846017044706A460221FF205930D9
:1016900002F0E8F938BD38B5044600200090E007B4
:1016A000C00F002804D06946087830210843009014
:1016B00002202040002804D0694608780C21084305
:1016C000009004202040002804D0694608780321B7
:1016D000084300906A460121FF20493002F0C2F918
:1016E00038BD38B50446012C01DA012402E0042C8F
:1016F00000DD0424601EC0B200906A460121FF2074
:10170000503002F0AFF938BDF0B585B006460F464F
:101710007007400F002803D019208001874203DDA5
:101720000020C04305B0F0BD3846FBF73DFE5C49E4
:101730000090FBF745FD019002A801F05FFA6846B2
:10174000007A022806D0042816D0082826D01028AF
:1017500048D135E08D21C905019803F013F90090B7
:10176000FBF7DEFD84B24F49019803F00BF90090BE
:10177000FBF7D6FD85B238E023214906019803F036
:1017800001F90090FBF7CCFD84B24749019803F0C2
:10179000F9F80090FBF7C4FD85B226E08B21C9055E
:1017A000019803F0EFF80090FBF7BAFD84B23F49CF
:1017B000019803F0E7F80090FBF7B2FD85B214E062
:1017C00045210906019803F0DDF80090FBF7A8FD1C
:1017D00084B23749019803F0D5F80090FBF7A0FDDB
:1017E00085B202E00020C0439CE700BF211268469A
:1017F0000173447329128173C573F007C00F002869
:1018000016D003AA0221FF20D53002F02BF90028C0
:1018100002D00020C04385E703AA02320221FF2044
:10182000253002F01FF9002802D00020C04379E7DC
:1018300002203040002816D003AA0221FF20D93010
:1018400002F010F9002802D00020C0436AE703AA82
:1018500002320221FF20293002F004F9002802D0D0
:101860000020C0435EE704203040002816D003AAC1
:101870000221FF20DD3002F0F5F8002802D0002020
:10188000C0434FE703AA02320221FF202D3002F0AD
:10189000E9F8002802D00020C04343E7002041E7D8
:1018A00000004843000040460000C045000040459D
:1018B0000000C04438B5054605212846FBF7EAF983
:1018C00084B221126846017044706A460221FF20EA
:1018D000DF3002F0C7F838BD38B505460521284687
:1018E000FBF7D8F984B221126846017044706A4649
:1018F0000221FF20DB3002F0B5F838BD0FB410B57F
:1019000008480178002908D10121017003A9029833
:1019100001F02AF8012000F007F810BC08BC04B060
:1019200018470000ED280020002801D000F062FFD9
:10193000FEE70000FFB581B0074615461C460220B1
:1019400000F0A2F8002802D1082005B0F0BD4649F9
:101950006068884204D12068FEF7C4FE002805D1E3
:101960004148606000202081206005E021684888AF
:10197000C01C8000081820606FE0002100912089C1
:10198000694602F0D1F868460088000137494018DE
:10199000007B0007000F022800D05BE020680028D1
:1019A00006D1684600880001304908581030206090
:1019B0003DE02668304600F0C3FB002830D000210F
:1019C000002F04D030883A88904200D1012102983B
:1019D000002810D0B2880298008882420AD1002FD5
:1019E00001D1012004E0002901D0012000E0002005
:1019F000014600E00021002911D06846008800015E
:101A00001A4A801880882881B06828602068686039
:101A10001748A881174800886881002095E700BF13
:101A20007088C01C800021680818206000BF6946CB
:101A3000098809010D4A515801229202891820682B
:101A4000884204D220680068401C0028B1D10020E0
:101A5000206000BF2089401C2081208902288CDB67
:101A600000206060052070E71AE1AB15902A002085
:101A70001EF100001E280020024909788143014A16
:101A800011707047152800200146054A12780A4057
:101A9000002A01D0012200E0002210467047000019
:101AA00015280020024909780143014A1170704746
:101AB0001528002010B58A68002A02DCFBF786FE94
:101AC00010BD521E8A604A68C0B2531C4B60107031
